:100000000C949D080C94CE080C94CE080C94CE0849
:100010000C94CE080C94CE080C94CE080C94CE0808
:100020000C94CE080C94CE080C94CE080C94CE08F8
:100030000C94CE080C94CE080C94CE080C94CE08E8
:100040000C94CE080C94CE080C94CE080C94CE08D8
:100050000C94CE080C94CE080C94CE080C94803FDF
:100060000C94CE080C944A3F0C94203F0C94CE087C
:100070000C94CE080C94CE080C94CE080C94CE08A8
:100080000C94CE080C94CE080C94CE080C94CE0898
:100090000C94CE080C94CE080C94CE080C94CE0888
:1000A0000C94CE080C94CE080C94CE080C94CE0878
:1000B0000C94CE080C94CE080C94CE080C94CE0868
:1000C0000C94CE080C94CE080C94CE080C94EA3E06
:1000D0000C94C03E0C94CE080C94CE080C94CE0820
:1000E0000C94CE080C94570A0C94FA080C946D0CDE
:1000F0000C949C3E0C941E0C0C94E00D0C94CA3F86
:100100000C941C3E0C940B0E0C949C3D0C94630CB4
:100110000C947A340C94650A0C94720A0C946F0C4B
:100120000C948E0A0C9427090C94E60C0C947C0A0F
:100130000C94FC0D0C945D0A0C9458090C941C3D15
:100140000C94C10D0C94CC310C94783B0C94760A31
:100150000C94980A0C94C83B0C94D80D0C94360956
:100160000C94E70D0C94AE310C94EE0D0C94323CD3
:100170000C94920A0C944A090C946B0C0C949A09F6
:100180000C949C3C0C94030E0C943C0C0C94EC09C9
:100190000C94F50D0C941A0D0C94650C0C946C0ACF
:1001A0000C940A0E0C948A0A0C94BA3B0C94800AA4
:1001B0000C94EA0B0C94670C0C94C50C0C946D0D0C
:1001C0000C94690C0C94690A0C94840A0C949E1784
:1001D0000C949C0A0C94830D0C94970A0C94610C5B
:1001E0000C943B0D0C94610A0C94C9100C9488314A
:1001F0000C94B83E4E414E494E495459494E46CD55
:10020000CCCC3D0AD7233C17B7D13877CC2B3295CD
:1002100095E6241FB14F0A000020410000C84200AB
:10022000401C4620BCBE4CCA1B0E5AAEC59D740075
:10023000407A10F35A00A0724E18090010A5D4E8B5
:100240000000E87648170000E40B54020000CA9A48
:100250003B000000E1F5050000809698000000409A
:10026000420F000000A086010000001027000000DF
:1002700000E803000000006400000000000A000025
:100280000000000100000000002C76D888DC674FD9
:100290000823DFC1DFAE59E1B1B796E5E3E453C609
:1002A0003AE651997696E8E6C28426EB898C9B6201
:1002B000ED407C6FFCEFBC9C9F40F2BAA56FA5F4AB
:1002C00090055A2AF75C936B6CF9676DC11BFCE0D3
:1002D000E40D47FEF520E6B500D0ED902E03009426
:1002E0003577050080841E080000204E0A000000BB
:1002F000C80C333333330F986E12831141EF8D21C5
:1003000014893BE65516CFFEE6DB18D1844B381B2B
:10031000F77C1D901DA4BBE424203284725E2281F0
:1003200000C9F124ECA1E53D2700002200250028AA
:10033000002B002E003100340002010000050108EE
:10034000010B01000020002300260029002C002FB3
:100350000032000001000003010601090100000A4B
:100360000B02090C0D0E0807030401000000000039
:10037000000000000000000000000000000000007D
:10038000000000000000000000121110000000003A
:10039000000000000000000000000000000000005D
:1003A00000000000002100240027002A002D00305A
:1003B00000330001010000040107010A01010210DD
:1003C000202008081020401020408002010201086F
:1003D000040201010204081020408080402010081F
:1003E0000402018004020180402010080402010878
:1003F00004020101020408102040800102040810D8
:1004000020408005050505070508080808020202C6
:10041000020A0A080804040404010101010101019F
:10042000010303030303030303040707070C0C0C76
:100430000C0C0C0C0C02020202060606060606064E
:10044000060B0B0B0B0B0B0B0B789CED5B4F482338
:10045000C91AEFE539BC7A8C033DB7BC5B35CC805B
:100460000185F46DB2A74AD859C64016D3A7255EB8
:100470003A36236A33C3247D19480E796EAD3BCFDB
:10048000CDD339CE71505051D039CE51D60706B2A6
:10049000901C3D2EB86040C11C3DBEAFAAFA4F254E
:1004A00076A7E3CCECEE3BE46BA23156577FBFFA64
:1004B000FE7F555194BF98903285E7489D7C34CF9C
:1004C000CC9E7953BF316FCC2E6992776409A770A7
:1004D000E2AF666F14C20952378FCD1EE7DDBDEA69
:1004E000FE4F78F5CC33B2879F8C32570675D3799F
:1004F0006BD27AA4E12FC099A69CC26C0FACA7C99D
:10050000B891788ABC0943E063903F3BC67320B73B
:10051000A1B49C2D340C5A6EE8742DF6D9B1BCA14F
:100520007DA3DC28B08B2EEAC3C60186AEE0B73EC1
:10053000C0733D4432EC27391E2E9787D46894D976
:100540000B9EFD938E3F0385A6ACE4380698ABDC8A
:1005500098B42251A4CCE6A00CC2FF1EFC8BBC5662
:10056000D4A859D55AA561000678355274E7936529
:10057000829503A302FCB3D9CA20E1071138C8123F
:10058000B366D39585C46DCF6C923DB0EE77E43DF4
:100590003936BB6152316FC8C728CB9FCDF167D3C5
:1005A000829049634DC7319A1846200BC3E07228E8
:1005B00053369B0EF3840C43E47588FE77C85BD0FA
:1005C00099FEA7228CF192F991E11940D2C45361AE
:1005D0001C6450CB28D0325FC902F090A2BBE93B2B
:1005E000A3400706BBB7229080ADEDA4BF0A194710
:1005F000DEC8DACF2EF25121D1BAC27C3220EF0E02
:10060000E858271C09562E3917E586AB1774470F93
:10061000E3221AC5BA61C0FDCC320C8EE2EF5F87CF
:10062000F1845FF5DB0239C3DF8FF48084B9376072
:100630002B4D2554BB32E85783F99832E38316D803
:100640007A0EF13683F7B640A3D855E17A99A2A77E
:10065000A1DE023FF3EC42F044F694B061E184F095
:100660005C70B729EE0E25ACFC5A2C342ADC4AF912
:10067000CAD2DD917C570664C1FC53850AEF9DA266
:10068000281BFE00F3B73E3EDE8C8CC19BE009398F
:100690000BA24BFD06BF8AE2E8B2E87154E0DAB182
:1006A0001B2B136617C2B60BDCE7CD45C802EC7BEB
:1006B000AF7E135838A9C745B5504A99BF49DAD516
:1006C0005542AD44C884EB392D7324713261B2E0D8
:1006D000DEA121BC04D84536DCD761D2278B779FB9
:1006E0008041D093C0E6C147BC8F5A0DACB4B84C22
:1006F0000C2E95F2503BC108C6D2C03F301F1535B5
:100700001672C0C04E236C743422AF647B075F172F
:10071000419AD26216CF7DB090C9A9AE858D03599A
:10072000F08847592E60805D7433517382854BF693
:100730003D5AD6174DE60749B21FA3C765585CE678
:100740005E14EC965642D73903722BBBFE89A14D3D
:100750000DD34044A427E33BDBF720E12792E7EAEF
:1007600086471277242029B89A25BCD76E5AE612FC
:1007700033EBE63EBAC0A5A6D38B2191134F314F80
:10078000E5E683439F3B2A910F4184C74BC34682D2
:100790004C8AE083A9C1FD30E356CEC3C1BA69C11A
:1007A000F5CE4C5E6B43BD0178FEC04FED7D929F50
:1007B0001A9C91049919398E19CB330DE68585FE63
:1007C00004D9EB967A5DADF02C8A5D2CEA0D9F89F9
:1007D000BC956C63EEF35130323B92AD4767359C6C
:1007E00034B45FE4DE887BE1191FC736E028738DDF
:1007F00033468A3166A7EE57775F421A8C703DC840
:10080000B8E2D746530EDCBCCB6804FC62E5FEBC04
:10081000F0B5A9A176E18E56E59CFB73F9F7672543
:10082000415485981A4B50F3660E9D4DE7224DA416
:10083000955C40CBB976356F83CDC4AE2FD44C8157
:10084000978C7F22C20472C7F8F89212F93CB7B9AC
:100850000FB1A3BF00C9B1039B3183919BD7F6624F
:10086000F3602C7C205F9DE32FA5ADC31F28C58EB0
:100870006731635FF9D57A0C129C30CF7CEFD1FCE5
:10088000337090EF258B243163DFCB59D830245857
:10089000251DDFF3363FA57EBD2B6133C887E23CC3
:1008A0000B54EE72ADD42366E4AC0996C3BB338F10
:1008B000A4579AB2AAAEAA78F053B4A596465A8520
:1008C000C03EE2622F23B2D78724D2A2302677B26D
:1008D0008F2C44C3B6D376D6737212F8833A63B5BD
:1008E0009D43E774943A7EEA4EB5933A80A4178EFE
:1008F00004721DBF9F1255190604D56E51F4A32A28
:100900008DA6CFB386F296216A2DA8FD62EB7824DE
:10091000E1388EC5C12B2E393B86BB4290F449B9D4
:100920001E8762D23238B72CE6E5FD78FE4BE2BA7C
:100930002A6A79567D4467EB1E9166C0555C0E119C
:10094000201131AE1E2113520FA2EB702F58525BB3
:10095000458367B32233BF2A7AFF5955DBD5321559
:10096000FD1DD6F342593C1CC79B787DBF8DA47EEC
:1009700013707A5B26F29CC3D6066431EFEA0ECF81
:1009800012D5DA6329DF9DCD717C3CE765128BE8D7
:100990002CB824D7B423C72CC47CB02C13D2E723A3
:1009A00060CE9EEB7587D4C8197455643514ABA41A
:1009B000189A87039D39ACFCDB70F54AF453C14E9D
:1009C000B448FEC0B79C0599E2C8D520EA8F26B08E
:1009D000064BD21A20BC6436C91954E891394C46EA
:1009E0009DB44447AD20EAEEDAE2AD9EAFA62CE717
:1009F000DC2E28B3145A88EAF670121CB956FB7E16
:100A0000441C1C49A059F55B7E1BA2DF108D2AA156
:100A1000CBA2A86A45BEAED2D03EADC2B58BEB1D0F
:100A20009318935D32A257C22B51C9FFC465275159
:100A300048EE605F8062D2AAF8BA5F01BBB82D0BA6
:100A40008F342464E2A2817BA6725163655F4A3AC7
:100A500018DF0589B702F51163A9B08B32D728D109
:100A60001D556B51B2108441BB447DE27984D96C31
:100A7000586FA5BF375067916B14FFEB2179372072
:100A800093883EA24725F4C0F2B489CB8246CBC2FC
:100A9000230DB44BD4E9A2DB5EA0C97099003701E5
:100AA00027BC8376272403163F044946BD5A306885
:100AB000858A1D1DD68FFA71A44E3546DC0BBBDE30
:100AC0000B74923ECBE1B081AA5C53B39E221E1DF3
:100AD00089E2C9C4F37B8024D4164B903109DF230B
:100AE000E29E4A9F8FBC2F85955C4E748144C40161
:100AF0009984FA2E9C1AD8C738BE430FC895497DF1
:100B0000A8768175CF7B118FF99F8777DEF1CC3185
:100B10003BA122DA30AD9C0AB513A8A97A758917D2
:100B200088264BA3EB17432247F941992C805DB0EF
:100B3000EE66D9DD855169FC9EF12D0E11DBE1F4E5
:100B4000FA72ACD79B0CCD56820AC347D319B6773D
:100B5000D947887590EAD2FDF8B5FC6F77FF82ED32
:100B6000D9826544C78B389ACDB9B62EFAA5111D26
:100B700021BC24EFC7B85CF5C87BA8FE52A0A22A0E
:100B8000AC31C4379CC05398E0256CF6EB1E7ED385
:100B9000BF2F2523F1624585DBC5D370C7390261BC
:100BA00065362BF6190D6E2D33160E1F47FA777426
:100BB0007CFBED41CDDD319B906F34E1B7D70FF970
:100BC0000DF005A40A245206E92351A9E1C66FB528
:100BD000F6ED679D04087C17D3D2E8FD7380F2F12F
:100BE000F6CEF9EDDD72379319E8EB78FD49090986
:100BF000B71394157D5AC8693F59163E83CAB39CF2
:100C00008825293A316C3684BFF7A4521FE07BF067
:100C1000BA557D214FBBBCF142BBB0729A9EB6AEB5
:100C200016863E7764FA4AD9D1A7ADFBD6BDF8D96E
:100C300054FC9AC5947A1F8A7A1F368E23A41A967A
:100C4000EB8FBAA45DF84B40F804C22A26A0277D9A
:100C5000F6D22F97A87849EAFD4846C9BBFE7042F4
:100C6000F8097E4DF6C831E9801F66AF63F281BC9A
:100C70001DDE210D64C2919FFD79ECC612F7B9FC0F
:100C80001AA56AE476E24BA4FB8773F70712F1E337
:100C90000979FB57F3F259C4EADB33B30B28EE9022
:100CA000758E694C631AD398C634A6318D694C632E
:100CB0001AD398C6F4FF4707C639EFAE5CA4D78DA8
:100CC00055B7CA3D4FAC1B5861FB4D4F9397C519A3
:100CD0006B3FB795C8A0D9DCBAB16EFC0CAF7D6391
:100CE0003F87BE56941D7D3DB70F7F9FA633BCC383
:100CF000A1A1D96CD0E77EA42DE7D8E7ABEABA3141
:100D00009BCD483D9055753997E49F2C206FC69F29
:100D10000DB6479F412BC694BF63BAA3B313B72840
:100D2000CB46B031ECE7B35C0969A89B99B4262D9A
:100D300024CD5A6988FDB3A3AA41A76DB10FFE5C0B
:100D4000371A6CC4F3648A4E5B2BB9BC7D7FBE84BA
:100D50005AC68C356DA568DB99B166E053ACE4EDFD
:100D6000B6737F3E6F5D578FAA6C0DB268D3393072
:100D7000BC992FD2D7CE6A82CDC27AA5CBD28EDBD8
:100D80008AA153B5B6AD32AC059AB7AF8AF7E7275B
:100D90002DB677748E596FD8DBC56E15272DB6C763
:100DA0003D0DCF6B5753B569787ECB5840ADE2759A
:100DB00075DF38308E9C60BFA94C7FE4EFDBD597A0
:100DC00076817EC3FB998BC942831D1C79604DDB04
:100DD000AC97849555BF1F71E8CCFA1CE5AD7583BF
:100DE000F54227B4DE0F2B39B69A1BCE817F82E302
:100DF00034DDE6E89EEB2AF0BA612FB86B5742D794
:100E0000D5CB62AFBA0D182700C7DFA41EEA79421E
:100E10006F6C38E23E45B92C06DDEEF5DC86E34921
:100E2000B3E07E6B690105A7A7CAEE37E4DAD564A3
:100E300076C6CA7389783866AC177666A02776249A
:100E4000E1F8CE5EE7ABFF2FF588CBA1148AE3DB98
:100E5000A45ADBD175EAF5C151F6C841D95EF54413
:100E600015387EC7C1ECBF27D8B966EF5B24208F49
:100E7000F9DB38B60147F7D69929C3DDB969037F95
:100E8000F7347122772D59A60CCF5A52A733767FAB
:100E900007FBD009F6FF5ED8075C1EDD8CCE77B16C
:100EA000B280A3E5E368A63B1CC7535DAD9D27F266
:100EB000B6F84F16BDB4978D1DF86CCB95C78E7ED6
:100EC0009E38496C27B09007E04A6655CAEEBC2CA4
:100ED00006DF7AFBD9D8B0C5BBAF94ABA25A5B375B
:100EE00016FA56B8E2CAA85D9DCD61F460FED0291D
:100EF000A99E3C1474916E3B053A696DFB7AB52945
:100F0000E1C8DB29DAA93EACA5A83853067A65CB3F
:100F1000F6D1AE6E311C208F93C41A4884F1F65876
:100F20000304EA4FE9EBEAB69047A3F743DBE9385D
:100F300079BB047F9F008E096D556D837C3574D914
:100F4000278F4DC77B5F520F00894EFF21D979B99A
:100F5000F19CE3E85457B2623D76D28B7AA1E19DD1
:100F60007C59453B69B5D6763CF4601F3E8E97F6BA
:100F70007D6B42BB48EB010EA725E1E8B8381E02A5
:100F80008E2DB553651AD92AB23350BBFA35B78FB7
:100F90007B208FC5243B3BB8A0B2336927788EFEF7
:100FA0000E9F2773A0778956BF7DD8D2F2A313F086
:100FB000A905BAE2EB7841D22B3EDEB87676F5028F
:100FC0009595E91BF038DEB7278E9C60AFFF85BB97
:100FD000FACB865A632BC3E471E9EB15CA06767E19
:100FE00002BCB58C4D07D6BBF648631EB5E7CA43B5
:100FF0006FC8F67192283426FEC93C78DBD937FADF
:1010000070187D38DCCF52D4EB6907762E709C24A3
:10101000AEAB1BB6C0E1C9E41C076734643B7F611B
:10102000093BFF6F42754FC63DB08E1CE1433465EE
:10103000DADAB0198BCF75260FE663E7E84BFB8849
:101040004B7617F46ACBD52BC67780437777B29867
:101050001E1E3A7D385CBD0ACEE324B329EA2D82F8
:10106000641F59EF0E76A241636B52EDA627B4C7F9
:10107000C9BCD5763C0FD72F8F7D43F0FC9DBDE1D9
:1010800030D4DF680FE955F171720262A0EAEED93F
:101090002E26853C1465C3A93472FCEE9DF4B5EF91
:1010A00077BB99A7497631F980BF6A9C73D6983F80
:1010B0002834C2E47191CEDB8BFAC43F99AF08F4B7
:1010C000EAD01167DDA62DEFD4FD823A39FF92C731
:1010D0008D537DC38688452F8BBFF83B2A93F3C180
:1010E00039D183A267F36B30F284FB82C7C9197EC2
:1010F0004FDEF2764D1F25FF630B3FB1A61F3AABC3
:101100007C3D9E265FD84CE7B6131BF6A1C3AE23E9
:1011100087F9D2EDC4A673EE3EEB9EB6694FF9B6E1
:101120003895BD5A10EF4A901F5C577588C749C95A
:10113000CEFF07AF53E94C00CA3F11241FBECFEFCB
:10114000D1E2DEBFCDBF00E00CBF2DE0A2E1B9E0EF
:1011500001C01D92A333B207E1F719E0A0E0B2E0AD
:10116000E4EBFAEA00E00BBF02C007900D92A23157
:10117000B107D9F718E0CDE9D8E000E006C0219723
:101180000109802FFE010E944450CC39D10780E034
:101190000807A9F70E94FC400C9458550C940000D5
:1011A000089508950895FC01A089B18982E08C9387
:1011B000A485B5851C92A685B78587E68C93108E8D
:1011C000A489B58986E08C93A289B3898C918061CA
:1011D0008C93A289B3898C9188608C93A289B389FE
:1011E0008C9180688C930288F389E02D80818F7DBB
:1011F00080830895AF92BF92CF92DF92EF92FF92D9
:101200000F931F93CF93DF936C017B018B01040F2E
:10121000151FEB015E01AE18BF08C017D10759F0CA
:101220006991D601ED91FC910190F081E02DC6010C
:101230001995892B79F7C501DF91CF911F910F91F6
:10124000FF90EF90DF90CF90BF90AF900895FC019A
:10125000538D448D252F30E0842F90E0821B930B1B
:10126000541710F0CF96089501970895FC01918DC1
:10127000828D981761F0A28DAE0FBF2FB11D5D96C4
:101280008C91928D9F5F9F73928F90E008958FEF66
:101290009FEF0895FC01918D828D981731F0828D1A
:1012A000E80FF11D858D90E008958FEF9FEF089571
:1012B000FC01918D228D892F90E0805C9F4F821BD5
:1012C00091098F739927089583E499E00E94580942
:1012D00021E0892B09F420E0822F089580EE99E027
:1012E0000E94580921E0892B09F420E0822F0895FB
:1012F000FC01A48DA80FB92FB11DA35ABF4F2C918B
:10130000848D90E001968F739927848FA689B78981
:101310002C93A089B1898C91837080648C93938D78
:10132000848D981306C00288F389E02D80818F7D1B
:1013300080830895EF92FF920F931F93CF93DF93D3
:10134000EC0181E0888F9B8D8C8D98131AC0E88901
:10135000F989808185FF15C09FB7F894EE89FF89D0
:101360006083E889F98980818370806480839FBF6E
:1013700081E090E0DF91CF911F910F91FF90EF906E
:101380000895F62E0B8D10E00F5F1F4F0F7311277E
:10139000E02E8C8D8E110CC00FB607FCFACFE889B9
:1013A000F989808185FFF5CFCE010E947809F1CFC0
:1013B000EB8DEC0FFD2FF11DE35AFF4FF0829FB72D
:1013C000F8940B8FEA89FB8980818062CFCF682FE8
:1013D00083E499E00C949A09CF93DF93EC01888D14
:1013E0008823B9F0AA89BB89E889F9898C9185FDA0
:1013F00003C0808186FD0DC00FB607FCF7CF8C912E
:1014000085FFF2CF808185FFEDCFCE010E94780964
:10141000E9CFDF91CF91089580E090E0892B29F00A
:101420000E946E0981110E94000080E090E0892BEB
:1014300049F080E090E0892B29F00E9400008111A2
:101440000E94000080E090E0892B29F00E9464094E
:1014500081110E94000080E090E0892B49F080E03B
:1014600090E0892B29F00E94000081110C9400006B
:1014700008958150823108F05AC0E82FF0E08827A3
:10148000EB5BF54F8F4F0C944450650A690A570A7D
:101490005D0A610A970A6C0A720A760A7C0A800A57
:1014A000840A8A0A8E0A970A920A980A9C0A8091EC
:1014B00080008F77809380000895809180008F7DD9
:1014C000F9CF80918000877FF5CF84B58F7784BD79
:1014D000089584B58F7DFBCF8091B0008F77809386
:1014E000B00008958091B0008F7DF9CF8091900079
:1014F0008F77809390000895809190008F7DF9CF31
:1015000080919000877FF5CF8091A0008F778093A6
:10151000A00008958091A0008F7DF9CF8091A00058
:10152000877FF5CF809120018F77809320010895E8
:10153000809120018F7DF9CF80912001877FF5CFA9
:10154000CF93DF93282F30E0F901E35AFC4F8491C9
:10155000F901E354FC4FD491F901ED5FFB4FC491C5
:10156000CC23A1F081110E94390AEC2FF0E0EE0F9C
:10157000FF1FED5BFC4FA591B491EC91ED2381E051
:1015800090E009F480E0DF91CF91089580E090E051
:10159000FACF1F93CF93DF93282F30E0F901E35A5E
:1015A000FC4F8491F901E354FC4FD491F901ED5FB4
:1015B000FB4FC491CC23A9F0162F81110E94390A48
:1015C000EC2FF0E0EE0FFF1FE75DFC4FA591B4910B
:1015D0008FB7F894EC91111108C0D095DE23DC93FD
:1015E0008FBFDF91CF911F910895DE2BF8CFCF935E
:1015F000DF9390E0FC01E354FC4F24918D5F9B4FFF
:10160000FC0184918823D1F090E0880F991FFC01A0
:10161000ED55FC4FA591B491FC01E75DFC4FC591E0
:10162000D491623071F49FB7F8943C91822F8095E9
:1016300083238C93E8812E2B28839FBFDF91CF914A
:1016400008958FB7F894EC912E2B2C938FBFF6CF83
:101650003FB7F89480911F0990912009A09121092A
:10166000B091220926B5A89B05C02F3F19F001961D
:10167000A11DB11D3FBFBA2FA92F982F8827BC01EC
:10168000CD01620F711D811D911D42E0660F771F14
:10169000881F991F4A95D1F708958F929F92AF9214
:1016A000BF92CF92DF92EF92FF924B015C010E94BA
:1016B000280B6B017C010E94280B6C197D098E0997
:1016C0009F09683E734081059105A8F321E0821AC5
:1016D0009108A108B10888EEC80E83E0D81EE11C6D
:1016E000F11C81149104A104B10429F7FF90EF903B
:1016F000DF90CF90BF90AF909F908F9008954F92C2
:101700005F926F927F92AF92BF92CF92DF92EF92F1
:10171000FF920F931F93CF93DF93EC015A018B013C
:101720004C8C5D8C6E8C7F8C73016201F7FAF094A7
:10173000F7F8F0949A01AB01C701B6010E94904FEF
:10174000181664F09501A801C301B2010E94244D4E
:101750007301620187FD02C06501780120E030E07D
:10176000A901C701B6010E94244D811117C01B8237
:101770001C821D821E82C88ED98EEA8EFB8EDF915E
:10178000CF911F910F91FF90EF90DF90CF90BF907E
:10179000AF907F906F905F904F900895A701960152
:1017A00060E074E284E799E40E94E84E9F770E942B
:1017B000614F6B837C838D839E8311E020E030E05A
:1017C000A901C701B6010E94904F18160CF010E055
:1017D0001A83D1CFCF93DF93FC012781222359F1C4
:1017E000EC0161E080850E94F70A61E089850E9432
:1017F000F70A8F81843011F08830B1F461E08A8576
:101800000E94F70A61E08B850E94F70A8FA58F3F3F
:1018100091F061E00E94F70A6EA581E068278FA52C
:10182000DF91CF910C94C90A833011F0863071F7A3
:1018300061E08A85E9CFDF91CF910895CF93DF935F
:10184000FC0127812223A9F0EC010190F081E02D19
:101850000284F385E02D60E019958FA58F3F49F054
:1018600061E00E94F70A6EA58FA5DF91CF910C94DD
:10187000C90ADF91CF910895DC01ED91FC91119798
:1018800022853385477055276627772741505109B0
:1018900061097109473051056105710570F4FA015C
:1018A0008827EA5AF34F8F4F0C944450610C630C15
:1018B000650C670C690C6B0C6D0C61E0CD01F901D6
:1018C000199465E0FBCF64E0F9CF66E0F7CF62E002
:1018D000F5CF6AE0F3CF68E0F1CF69E0EFCFCF93C7
:1018E000DF93EC01CB01BA0126E030E040E050E0AC
:1018F0000E942550623071058105910589F16CF4D3
:101900006115710581059105D1F061307105810581
:101910009105F9F0DF91CF9108956430710581054B
:10192000910561F124F1653071058105910591F70B
:10193000E881F9810284F385E02D66E006C0E88144
:10194000F9810284F385E02D64E0CE01DF91CF912F
:101950001994E881F9810284F385E02D65E0F5CFE3
:10196000E881F9810284F385E02D61E0EECFE88122
:10197000F9810284F385E02D63E0E7CFE881F98106
:101980000284F385E02D62E0E0CFDC01ED91FC9173
:101990000284F385E02D4370552766277727423070
:1019A00051056105710571F04330510561057105FF
:1019B00059F0413051056105710511F065E0199448
:1019C00066E0FDCF6AE0FBCF69E0F9CFCF93DF930C
:1019D000EC01CB01BA0123E030E040E050E00E948E
:1019E0002550613071058105910599F062307105CE
:1019F00081059105A9F0672B682B692BC1F4E8815B
:101A0000F9810284F385E02D64E0CE01DF91CF916E
:101A10001994E881F9810284F385E02D61E0F5CF26
:101A2000E881F9810284F385E02D62E0EECFDF9159
:101A3000CF910895DC01ED91FC910284F385E02DB6
:101A40004370552766277727423051056105710598
:101A500071F0433051056105710559F04130510570
:101A60006105710511F062E0199463E0FDCF61E05A
:101A7000FBCF60E0F9CFCF93DF93EC01E881F981F0
:101A80000284F385E02D8A8160E0811162E0CE015D
:101A90001995E881F9810284F385E02D8A8161E05E
:101AA000811163E0CE0119958CA59DA58230910529
:101AB00038F0880F991F880F991F05970197F1F744
:101AC000E881F9810284F385E02D8A8160E081114B
:101AD00062E0CE01DF91CF911994CF93DF93EC01B7
:101AE00020E030E0A901688D798D8A8D9B8D0E9460
:101AF000904F18162CF4E8A9F9A9DF91CF91199409
:101B0000EAA9FBA9FACFCF92DF92EF92FF920F934F
:101B10001F93CF93DF93DC011796CC91C43039F03B
:101B2000C83059F1C33019F0C63049F1C2E08C0118
:101B3000085F1F4FF12CE12CC62ED12CD1E0F8010B
:101B40006481C6010E2C02C0959587950A94E2F730
:101B500080FD6D270F5F1F4F80810E94C90ABFEF74
:101B6000EB1AFB0AEC1658F3DF91CF911F910F91FE
:101B7000FF90EF90DF90CF900895C4E0D8CFC3E0FE
:101B8000D6CFDC011796EC911797E93008F042C0E8
:101B9000F0E08827E153F24F8F4F0C944450D80D5A
:101BA000E00DE70DEE0DF50D0A0EFC0D0A0E030E0D
:101BB000ED91FC9111970684F785E02DCD011994E4
:101BC000ED91FC9111970088F189E02DF7CFED910F
:101BD000FC9111970288F389E02DF0CFED91FC91F3
:101BE00011970488F589E02DE9CFED91FC911197CB
:101BF0000688F789E02DE2CFED91FC911197008CDA
:101C0000F18DE02DDBCFED91FC911197028CF38DDE
:101C1000E02DD4CF08954F925F926F927F928F9272
:101C20009F92AF92BF92CF92DF92EF92FF920F936B
:101C30001F93CF93DF93EC01CC88DD88EE88FF887B
:101C400088899989AA89BB89C81AD90AEA0AFB0A2C
:101C5000688D798D8A8D9B8D9B01AC010E948A4D88
:101C60004B015C0168A179A18AA19BA19B01AC01F8
:101C70000E947C4E9B01AC01C501B4010E94E84E5C
:101C80000E945A4FC114D104E104F10409F0B6C016
:101C900062307105810591050CF0D0C01B821C8259
:101CA0001D821E82188E198E1A8E1B8E1CAA1DAACA
:101CB0001EAA1FAAC12CD12C7601C701B601DF9143
:101CC000CF911F910F91FF90EF90DF90CF90BF9039
:101CD000AF909F908F907F906F905F904F900895FE
:101CE0001016110612061306B4F46C157D058E0548
:101CF0009F051CF42A812111A1C09B01AC018827FA
:101D00009927DC01821B930BA40BB50B8CAB9DAB0D
:101D1000AEABBFAB93C0011511052105310509F428
:101D20008DC06C157D058E059F050CF087C08A81DE
:101D3000882309F483C030952095109501951F4F95
:101D40002F4F3F4F0CAB1DAB2EAB3FAB77C00115F8
:101D500011052105310509F471C088249924540125
:101D60008C189D08AE08BF08681579058A059B0583
:101D70000CF064C08A81811161C0DDCFCCACDDACD8
:101D8000EEACFFACA7019601C701B6010E947C4EE4
:101D90002B013C01C501B4010E942B4D20E030E035
:101DA00040E850E40E948A4D20E030E040E85FE3E4
:101DB0000E947C4E9B01AC01C301B2010E94E84E1F
:101DC0009B01AC01C701B6010E947B4E3B016C0137
:101DD000FE01E05CFF4FE080F180028113819701FA
:101DE000A8010E94904F181614F473018601C701D0
:101DF000D8018CAF9DAFAEAFBFAF3AC00CA91DA943
:101E00002EA93FA91C141D041E041F040CF468CF46
:101E100010161106120613060CF099CF0027112791
:101E200098010C191D092E093F09601771078207D7
:101E300093070CF062CF2A8121115FCF8CA89DA857
:101E4000AEA8BFA881149104A104B10409F096CFF3
:101E500088AD99ADAAADBBAD8CAF9DAFAEAFBFAFF6
:101E600081E01C141D041E041F040CF080E08A8312
:101E70003FEF831A930AA30AB30A8CAA9DAAAEAABB
:101E8000BFAA8CAC9DACAEACBFACC501B4010E9486
:101E9000614F6B017C01CB82DC82ED82FE82A50169
:101EA000940160E074E284E799E40E94E84E688F50
:101EB000798F8A8F9B8F2A812111FFCE9058688F4E
:101EC000798F8A8F9B8FF9CECF92DF92EF92FF921C
:101ED000CF93DF93EC018B819C81AD81BE81892BF7
:101EE0008A2B8B2B99F10E94280B6B017C0188A512
:101EF00099A5AAA5BBA5B701A601481B590B6A0B5A
:101F00007B0B8B819C81AD81BE81481759076A0785
:101F10007B07E0F088899989AA89BB892A812223D5
:101F2000B1F10196A11DB11D888B998BAA8BBB8B3A
:101F3000488959896A897B89CE010E94C10DC8A64A
:101F4000D9A6EAA6FBA6CE010E940B0E20E030E047
:101F5000A901688D798D8A8D9B8D0E94244D8111F8
:101F60001AC081E0CC88DD88EE88FF8848895989CD
:101F70006A897B89C416D506E606F70609F480E06F
:101F8000DF91CF91FF90EF90DF90CF900895019770
:101F9000A109B109C9CF81E0F3CFCF92DF92EF92CF
:101FA000FF920F931F93CF93DF93EC016A017B01A4
:101FB00020E030E0A901CB01B6010E94244D87FF4B
:101FC00004C0F7FAF094F7F8F094A70196016C8D2D
:101FD0007D8D8E8D9F8D0E94244D882309F446C0EF
:101FE000CC8EDD8EEE8EFF8E8E01005C1F4FA70122
:101FF000960160E074E284E799E40E94E84EF801FB
:1020000060837183828393838CA99DA9AEA9BFA9A4
:10201000181619061A061B064CF5688D798D8A8DDF
:102020009B8D9B01AC010E948A4D6B017C0168A1D4
:1020300079A18AA19BA19B01AC010E947C4E9B01CE
:10204000AC01C701B6010E94E84E0E945A4F6CAB2A
:102050007DAB8EAB9FABCE01DF91CF911F910F91E6
:10206000FF90EF90DF90CF900C940B0EDF91CF910B
:102070001F910F91FF90EF90DF90CF9008950F93F5
:102080001F93FC01048915892689378904171507D0
:102090002607370741F0448B558B668B778B1F9152
:1020A0000F910C940B0E1F910F9108954F925F9218
:1020B0006F927F928F929F92AF92BF92CF92DF9258
:1020C000EF92FF92CF93DF93EC01488C598C6A8C8E
:1020D0007B8C20E030E0A901C301B2010E94244DB5
:1020E000882309F447C0A3019201C301B2010E94F1
:1020F0008A4D6B017C0168A179A18AA19BA19B01FA
:10210000AC010E947C4E9B01AC01C701B6010E944C
:10211000E84E0E945A4F6B017C0188889988AA88F2
:10212000BB8820E030E0A901C301B2010E94904FBA
:10213000B701A6011816CCF44F5F5F4F6F4F7F4F6A
:10214000480D591D6A1D7B1DCE01DF91CF91FF9077
:10215000EF90DF90CF90BF90AF909F908F907F9047
:102160006F905F904F900C943F1040955095609504
:102170007095E6CFDF91CF91FF90EF90DF90CF90F9
:10218000BF90AF909F908F907F906F905F904F9097
:1021900008950895CF93DF93EC0161E08AE00E94F7
:1021A000C90A1B861A86DF91CF9108958EBD000063
:1021B0000DB407FEFDCF8EB50895CF93C82F60E014
:1021C0008AE00E94C90A8C2F0E94D61080E00E94EB
:1021D000D61080E00E94D61061E08AE0CF910C9486
:1021E000C90AFF920F931F93CF93DF93EC01142F33
:1021F000052FF62E60E08AE00E94C90A8F2D0E940A
:10220000D610802F0E94D610812F0E94D61080E019
:102210000E94D61081E090E09B878A87DF91CF9162
:102220001F910F91FF9008951F93CF93DF93EC01BF
:102230000E94F11080E00E94D610182FCE010E945B
:10224000CA10812FDF91CF911F910895CF93DF9313
:10225000C72FFC0182859385029759F4862F0E942F
:10226000D6108C2F0E94D61090E080E0DF91CF91A5
:10227000089580E00E94D610C82FD0E080E00E9430
:10228000D6109E01382BC901F1CF0F931F93CF9326
:10229000DF93EC010E94F11070E060E0CE010E943B
:1022A00026118C01CE010E94CA10C801DF91CF9186
:1022B0001F910F9108950F931F93CF93DF93EC011C
:1022C00048EF50E260E370E0CE010E9445118C01BE
:1022D0004CEF50E260E370E0CE010E944511081718
:1022E000190771F74CEF50E260E370E0CE010E94F5
:1022F00045119F838E83DF91CF911F910F91089598
:10230000CF93DF93FC01C681D78148EF50E260E3B1
:1023100070E00E944511C81BD90BDF708CEF9FE065
:102320008C1B9D0BDF91CF910895CF92DF92EF929E
:10233000FF92CF93DF93EC016A017B018A859B8535
:102340000297A1F4BA01CE010E942611B701882795
:102350009927CE010E94261160E070E0CB01DF9149
:10236000CF91FF90EF90DF90CF90089570E060E004
:10237000CE010E9426116C01F12CE12C70E060E08E
:10238000CE010E942611B0E0A0E0772766276C29D5
:102390007D298E299F29E3CFFC01168E178E10A26E
:1023A00011A212A213A214A215A216A217A210A67D
:1023B00011A612A613A614A615A616A617A610AA4D
:1023C00081E090E092AB81AB14AA13AA15AA16AAD9
:1023D00008954CE251E260E370E080912A09909107
:1023E0002B090E9414118111F4CF08950F931F93AC
:1023F000CF9300912A0910912B094CE251E260E33E
:1024000070E0C8010E941411C82F4CE251E260E351
:1024100070E0C8010E941411C813C0E08C2FCF9146
:102420001F910F910895FF920F931F93CF93DF9306
:10243000EC01142F052FF62E60E08AE00E94C90AF5
:102440008F2D80680E94D610802F0E94D610812F79
:102450000E94D61082E090E09B878A87DF91CF911F
:102460001F910F91FF9008950F931F93CF93DF93C8
:10247000EC018B01CE010E94801180179107D0F3EF
:102480004E815F8170E060E050586F4C7F4FCE010D
:10249000DF91CF911F910F910C9413120F931F9303
:1024A000CF93DF93EC0189010E941312B801CE0192
:1024B0000E942611CE01DF91CF911F910F910C94B4
:1024C000CA10FC0126813781240F351F2D5F3F4F35
:1024D0002C7F3F70378326834CEF50E260E370E03F
:1024E0000C944E12CF92DF92EF92FF92CF93DF9334
:1024F000EC016A017B01CE010E9480110497D8F3A0
:102500004E815F8170E060E050586F4C7F4FCE018C
:102510000E941312B701A601CE010E949511CE01AF
:102520000E94CA1044E050E060E070E0CE01DF910C
:10253000CF91FF90EF90DF90CF900C9461120E94AA
:1025400072128091260990912709A0912809B091D3
:1025500029090496A11DB11D80932609909327098E
:10256000A0932809B093290908950F931F93CF933F
:10257000DF938C01EB010E94CA10AE0170E060E0B5
:10258000C801DF91CF911F910F910C946112CF93ED
:10259000DF93EC0168E070E00E9434124AE45FEFE0
:1025A0006FEF7FEFCE010E94951140E050E0BA013D
:1025B000CE010E94951168E070E0CE01DF91CF91CD
:1025C0000C94B512CF92DF92EF92FF920F931F936C
:1025D000CF93DF93EC017B016A01890160E170E038
:1025E0000E9434124CE25FEF6FEF7FEFCE010E944A
:1025F0009511A601DD0C660B770BBA015527442710
:10260000C701B0E0A0E04E29592B6A2B7B2BCE01ED
:102610000E94951140E050E0BA01CE010E94951150
:10262000A801110F660B770BCE010E94951160E196
:1026300070E0CE01DF91CF911F910F91FF90EF904D
:10264000DF90CF900C94B512CF93DF93EC0164E050
:1026500070E00E94341240E05FEF6FEF7FEFCE0139
:102660000E94951164E070E0CE01DF91CF910C944F
:10267000B512CF92DF92EF92FF92CF93DF93EC01EE
:102680006A017B0168E070E00E9434124AE05FEF6B
:102690006FEF7FEFCE010E949511B701A601CE0129
:1026A0000E94951168E070E0CE01DF91CF91FF901C
:1026B000EF90DF90CF900C94B512CF93DF93EC01A5
:1026C00064E070E00E94341241E05FEF6FEF7FEF53
:1026D000CE010E94951164E070E0CE01DF91CF91B0
:1026E0000C94B512CF93DF93EC0140E050E0BA01B7
:1026F0000E949F12CE010E945D1310922609109233
:1027000027091092280910922909CE01DF91CF9153
:102710000C945B11CF92DF92EF92FF92CF93DF93F5
:10272000EC016A017B0168E070E00E94341249E02C
:102730005FEF6FEF7FEFCE010E949511B701A60109
:10274000CE010E94951168E070E0CE01DF91CF913B
:10275000FF90EF90DF90CF900C94B5121F93CF9322
:10276000DF93EC01122F0E941312812F0E94D610CA
:10277000CE01DF91CF911F910C94CA10FC01019002
:102780000020E9F73197AF01481B590BBC0180EEDF
:1027900099E00C94FA088F929F92AF92BF920F9398
:1027A0001F93CF93DF93CDB7DEB7A1970FB6F89401
:1027B000DEBF0FBECDBF19A2423008F44AE08E0141
:1027C0000F5D1F4F842E912CB12CA12CA5019401DB
:1027D0000E940350E62FB901CA01EA30F4F4E05D2B
:1027E000D801EE938D01232B242B252B79F790E034
:1027F00080E0109719F0CD010E94BE13A1960FB68C
:10280000F894DEBF0FBECDBFDF91CF911F910F9126
:10281000BF90AF909F908F900895E95CE1CFCF93E8
:10282000DF930E94BE13EC0180EC92E00E94BE1385
:102830008C0F9D1FDF91CF910895CF92DF92EF9281
:10284000FF92CF93DF936C01990FEE08FF086A3077
:10285000710511F54AE0F7FE20C06DE280EE99E0C7
:102860000E949A09EC0166277727CB016C197D0934
:102870008E099F094AE00E94CB13C80FD91F80EC34
:1028800092E00E94BE138C0F9D1FDF91CF91FF90AD
:10289000EF90DF90CF900895462FC701B6010E94B8
:1028A000CB13EC01ECCF4F925F926F927F928F929D
:1028B0009F92AF92BF92CF92DF92EF92FF926B0105
:1028C0007C01AC019B010E94DB4F8823C1F083ECAB
:1028D00092E00E94BE137C0180EC92E00E94BE1345
:1028E0008E0D9F1DFF90EF90DF90CF90BF90AF9027
:1028F0009F908F907F906F905F904F9008954601CA
:102900005701E894B7F82FEF3FEF4FE75FE7C501B6
:10291000B4010E94DB4F81110DC02FEF3FEF4FE755
:102920005FE7C501B4010E94244D18161CF487EC22
:1029300092E0CFCF2FEF3FEF4FE75FE4C701B60143
:102940000E94904F18161CF48BEC92E0C2CF2FEF30
:102950003FEF4FE75FECC701B6010E94244D87FDB2
:10296000F3CF20E030E0A901C701B6010E94244D59
:10297000B12CA12C87FF0AC06DE280EE99E00E9485
:102980009A095C01F7FAF094F7F8F0942AE037ED31
:1029900043EA5BE3C701B6010E947C4E2B013C0178
:1029A0000E94614F6B017C010E94294D9B01AC018B
:1029B000C301B2010E947B4E2B013C014AE0C701DA
:1029C000B6010E94CB137C01EA0CFB1C6EE280EE88
:1029D00099E00E949A09E80EF91E20E030E040E2FA
:1029E00051E4C301B2010E948A4D2B013C010E94B7
:1029F000614F4B01B12CA12C4AE0C501B4010E94EA
:102A0000CB13E80EF91EC501B4010E94294D9B01AC
:102A1000AC01C301B2010E947B4E20E030E040E2F5
:102A200051E40E948A4D0E94614F90E080E04AE0AC
:102A30000E94CB13E80EF91E4FCFCF93DF93EC012A
:102A400085EA90E00E94E70962E370E080E090E0B0
:102A50000E944D0BCE010E94E70990E080E00E94A9
:102A6000E70990E080E00E94E70962E370E080E01F
:102A700090E00E944D0B8AE590E00E94E7098FEC00
:102A800092E00E94BE1340E165EA70E080E090E0D1
:102A90000E94CB1380EE92E00E94BE13BE0190E034
:102AA00080E040E10E94CB1384EE92E00E94BE13CE
:102AB00040E160E070E0CB010E94CB1384EE92E035
:102AC0000E94BE1340E160E070E0CB010E94CB1396
:102AD00080EE92E00E94BE1360E170E08AE590E033
:102AE000DF91CF910C941D14EF92FF920F931F93DF
:102AF000CF93DF93EB01FB0101900020E9F7CF01B9
:102B000001977C018B010E151F0531F0F8018191B1
:102B10008F010E94D610F7CF80E00E94D610FE01F0
:102B200001900020E9F73197CF018C1B9D0BEC0140
:102B300010E0C095D095C370DD271C171D0628F442
:102B400080E00E94D6101F5FF8CFDF91CF911F91D8
:102B50000F91FF90EF9008954F925F926F927F9246
:102B60008F929F92AF92BF92CF92DF92EF92FF929D
:102B70000F931F93CF93DF93EC013B014A0129018F
:102B8000F50101900020E9F7BF016A197B09605F38
:102B90007F4F0E9434124EE05FEF6FEF7FEFCE0168
:102BA0000E949511A401990C660B770BBA01552769
:102BB0004427072C000C88089908462957296829BA
:102BC0007929CE010E949511A801110F660B770B90
:102BD000BA0155274427052C000C660877084429BC
:102BE000552966297729CE010E949511A60170E02A
:102BF00060E0BA01552744270F2C000C000B110B85
:102C00004E295F29602B712BCE010E949511B501D1
:102C1000CE010E947415F50101900020E9F7BF0173
:102C20006A197B09605F7F4FCE01DF91CF911F91C1
:102C30000F91FF90EF90DF90CF90BF90AF909F905B
:102C40008F907F906F905F904F900C94B5120F9380
:102C50001F93CF93DF93EC0188819981009759F0FE
:102C60002A813B812617370730F081E0DF91CF9131
:102C70001F910F9108958B016F5F7F4F0E947D51CF
:102C8000009759F0998388831B830A832C813D81A7
:102C9000232B59F7FC011082E8CF80E0E7CFEF92B9
:102CA000FF920F931F93CF93DF936115710541F44A
:102CB00080E0DF91CF911F910F91FF90EF900895E9
:102CC00041155105B1F07B01EC010C811D81040F10
:102CD000151FB8010E942716882351F328813981D6
:102CE0008C819D81B701820F931F0E947B521D83AF
:102CF0000C8381E0DECFCF93DF93EC018881998153
:102D0000009711F00E94F450198218821D821C82D3
:102D10001B821A82DF91CF910895EF92FF920F9359
:102D20001F93CF93DF93EC01198218821B821A82C2
:102D30001D821C826115710521F18B01FB0101903F
:102D40000020E9F731977F01E61AF70AB7010E94E0
:102D50002716811109C0CE01DF91CF911F910F91EC
:102D6000FF90EF900C947B16FD82EC82B801888175
:102D70009981DF91CF911F910F91FF90EF900C946B
:102D80007B52DF91CF911F910F91FF90EF900895AB
:102D9000EF92FF920F931F93CF93DF938C017B01F0
:102DA000EB0109900020E9F72197C61BD70BBE0164
:102DB0000E942716811109C0C801DF91CF911F9190
:102DC0000F91FF90EF900C947B16F801D583C4838C
:102DD000B70180819181DF91CF911F910F91FF9079
:102DE000EF900C947B520F931F93CF93DF93CDB74B
:102DF000DEB762970FB6F894DEBF0FBECDBF8C0171
:102E0000CB01F80111821082138212821582148282
:102E10004AE0BE016F5F7F4F0E941F49BE016F5F96
:102E20007F4FC8010E94C81662960FB6F894DEBFA5
:102E30000FBECDBFDF91CF911F910F910895CF931A
:102E4000DF93EC01FB0101900020E9F73197AF011E
:102E5000461B570B0E944F16811103C0CE010E94E2
:102E60007B16CE01DF91CF910895FC018081918185
:102E7000009711F00C94F4500895FF920F931F9354
:102E8000CF93DF93CDB7DEB72C970FB6F894DEBFA4
:102E90000FBECDBF61EC72E0CE0107960E948D1689
:102EA00069EE72E0CE0101960E948D16CE01019668
:102EB0000E943517CE0107960E94351781EC90E0ED
:102EC0000E941D1509E010E0F12CF1100AC00E94CB
:102ED000F611182F8CEF810FFF24F394823008F045
:102EE000F12C64E670E080E090E00E944D0B015010
:102EF00061F761EC72E0CE0107960E948D166DEECF
:102F000072E0CE0101960E948D16CE0101960E94BC
:102F10003517CE0107960E94351782EC90E00E948B
:102F20001D15812F2C960FB6F894DEBF0FBECDBFB6
:102F3000DF91CF911F910F91FF9008950C94F45061
:102F40004F925F926F927F928F929F92AF92BF92B9
:102F5000CF92DF92EF92FF92CF93DF93EC016A0161
:102F60007B0120E030E0A901CB01B6010E94244D95
:102F700087FF04C0F7FAF094F7F8F09488A099A0BE
:102F8000AAA0BBA0A7019601C501B4010E94244DCF
:102F9000882309F44DC06CA97DA98EA99FA90E9420
:102FA0002B4D2B013C01A7019601C501B4010E94E4
:102FB000E84E9B01AC01C301B2010E948A4D0E9400
:102FC0005A4F6CAB7DAB8EAB9FABA701960160E017
:102FD00070E080E090E40E94E84E0E949B4F26E55E
:102FE0003EE04DE25FE30E948A4D20E034E244E798
:102FF00059E40E948A4D68AF79AF8AAF9BAFC8A2EF
:10300000D9A2EAA2FBA2E881F9810084F185E02D32
:10301000CE01DF91CF91FF90EF90DF90CF90BF90E6
:10302000AF909F908F907F906F905F904F9019948A
:10303000DF91CF91FF90EF90DF90CF90BF90AF9056
:103040009F908F907F906F905F904F900895CF9357
:10305000DF9385EF92E00E940F1440E45CE960E0AA
:1030600070E085ED9BE00E943F1086E10E94A00A7F
:10307000892B29F085ED9BE00E94640FF6CF64E177
:1030800070E080E090E00E944D0B86E10E94A00A73
:10309000892B31F482E10E94A00AC1E0892B09F456
:1030A000C0E085E093E00E940F1485ED9BE00E9454
:1030B00056101092E50B1092E60B1092E70B10924F
:1030C000E80B1092E90B1092EA0B1092EB0B1092A6
:1030D000EC0B1092090C10920A0C10920B0C10922F
:1030E0000C0C1092D80B1092D90B1092DA0B109294
:1030F000DB0B1092ED0B1092EE0B1092EF0B109277
:10310000F00B40E050E46CE977E485ED9BE00E9431
:10311000CD0F40E050E563EC77E485ED9BE00E9445
:10312000A01740EC53E66FEF7FEF81E99BE00E9430
:103130003F1080E20E94A00A892B29F081E99BE0E0
:103140000E94640FF6CF64E170E080E090E00E949E
:103150004D0B80E20E94A00A892B31F483E10E948A
:10316000A00AD1E0892B09F4D0E082E193E00E942B
:103170000F1481E99BE00E9456101092A10B10924F
:10318000A20B1092A30B1092A40B1092A50B1092FD
:10319000A60B1092A70B1092A80B1092C50B1092C1
:1031A000C60B1092C70B1092C80B1092940B109282
:1031B000950B1092960B1092970B1092A90B1092F0
:1031C000AA0B1092AB0B1092AC0B40E050E46CE9F0
:1031D00077E481E99BE00E94CD0F40E050E563EC8D
:1031E00077E481E99BE00E94A017C111CD2F8C2FBD
:1031F000DF91CF910895CF93DF93EB010E944B4E67
:103200008883CE01DF91CF910895CF92DF92EF9224
:10321000FF920F931F93CF93DF93EB017B0124E089
:10322000E20EF11C8B016C01C61AD70AC601800F91
:10323000911F0E944B4EF80181938F01EE15FF05FF
:10324000A9F7CE01DF91CF911F910F91FF90EF90E1
:10325000DF90CF900895CF93DF93EB010E944B4E08
:103260008883CE01DF91CF9108958F929F92AF9284
:10327000BF92CF92DF92EF92FF920F931F93CF9363
:10328000DF9300D000D0CDB7DEB76C018B016FE1CA
:1032900073E0CE0101960E948D16CE0101960E9428
:1032A000351784E191E0C89E7001C99EF00CD89E4C
:1032B000F00C112467018FEFC81AD80A4801570192
:1032C000EFE1AE0EB11CC6010E944B4EF40181939A
:1032D0004F01FFEFCF1ADF0AAC14BD04A1F7B8010C
:1032E000CE0101960E948D16CE0101960E943517DF
:1032F000B801615E7F4FC5010E942B19B801605E65
:103300007F4FC70180960E942B19B8016F5D7F4FD8
:10331000C70181960E940519B8016B5D7F4FC701F7
:1033200085960E940519B801675D7F4FC701899690
:103330000E940519B801635D7F4FC7018D960E94F9
:103340000519C701C1960E944B4EF80181ABC70118
:10335000C2960E944B4EF80182ABB8016B5C7F4F66
:10336000C701C3960E94FB18B8016A5C7F4FC70172
:10337000C4960E94FB185701F5E3AF0EB11C68011B
:103380008FEBC80ED11CE7E5EE0EF11CBE016F5F9E
:103390007F4FC5010E942B19C5010196698170E01C
:1033A000F601EF5BF10930E020E0AB01022E02C034
:1033B000559547950A94E2F7417047AB2F5F3F4F11
:1033C00071962830310589F7BE016F5F7F4F0E94EB
:1033D0002B192981822F2170F60121936F0181FB26
:1033E000992790F9908B82FB992790F991A383FB01
:1033F000992790F992ABED5BFF4F829581708083A6
:10340000F2E0AF0EB11CEA14FB0409F0BFCFF801E3
:1034100081A992A98436910524F083E690E092ABCD
:1034200081ABF80181A992A997FF02C012AA11AA43
:103430002DEC3CEC47EC52E4F80161A172A183A1B0
:1034400094A10E94904F18164CF48DEC9CECA7ECC4
:10345000B2E4F80181A392A3A3A3B4A320E030E0D7
:10346000A901F80161A172A183A194A10E94244D38
:1034700087FF05C0F80111A212A213A214A22DEC1D
:103480003CEC47EC52E4F80165A176A187A190A538
:103490000E94904F18164CF48DEC9CECA7ECB2E413
:1034A000F80185A396A3A7A3B0A720E030E0A90167
:1034B000F80165A176A187A190A50E94244D87FF00
:1034C00005C0F80115A216A217A210A62DEC3CEC1F
:1034D00047EC52E4F80161A572A583A594A50E946A
:1034E000904F18164CF48DEC9CECA7ECB2E4F8016C
:1034F00081A792A7A3A7B4A720E030E0A901F80113
:1035000061A572A583A594A50E94244D87FF05C0DF
:10351000F80111A612A613A614A62DEC3CEC47EC5C
:1035200052E4F80165A576A587A590A90E94904F61
:1035300018164CF48DEC9CECA7ECB2E4F80185A7CE
:1035400096A7A7A7B0AB20E030E0A901F80165A5D8
:1035500076A587A590A90E94244D87FF05C0F80194
:1035600015A616A617A610AAF801878D8E3014F09E
:103570008DE0878FF801878D87FD178EF80180A178
:10358000823114F081E180A3F80180A187FD10A2AF
:1035900026960FB6F894DEBF0FBECDBFDF91CF9158
:1035A0001F910F91FF90EF90DF90CF90BF90AF9061
:1035B0009F908F900895FF920F931F93CF93DF9367
:1035C000EC01F62E08811981C8010E944B4EF816B5
:1035D00021F06F2DC8010E94534ECE01DF91CF9193
:1035E0001F910F91FF900895AF92BF92CF92DF92FB
:1035F000EF92FF920F931F93CF93DF931F921F922F
:10360000CDB7DEB78B016B0124E0C20ED11C7B016C
:103610005C01A61AB70AC5018E0D9F1D9A83898386
:10362000F70161917F01CE0101960E94DB1AEC1433
:10363000FD0489F7C8010F900F90DF91CF911F9182
:103640000F91FF90EF90DF90CF90BF90AF900895D3
:103650000F931F93CF93DF931F921F92CDB7DEB7C7
:103660008B019A838983FB016081CE0101960E94C0
:10367000DB1AC8010F900F90DF91CF911F910F912E
:103680000895EF92FF920F931F93CF93DF931F92B2
:103690001F92CDB7DEB78C017B019A838983FB0132
:1036A0006081CE0101960E94DB1A0F5F1F4F1A83C3
:1036B0000983F7016181CE0101960E94DB1AC701DF
:1036C0000F900F90DF91CF911F910F91FF90EF908E
:1036D00008950F931F93CF93DF931F921F92CDB73F
:1036E000DEB710E000E01A821982BE016F5F7F4FE3
:1036F000C8010E94411B0F5F1F4F011580E1180791
:1037000091F70F900F90DF91CF911F910F91089536
:103710004F925F926F927F928F929F92AF92BF92E1
:10372000CF92DF92EF92FF920F931F93CF93DF938D
:103730001F921F92CDB7DEB78B0124E131E0829F4B
:103740003001839F700C929F700C112473018FEFD6
:10375000E81AF80A5B016301EFE1CE0ED11CFA8290
:10376000E982F50161915F01CE0101960E94DB1AA9
:10377000FFEFEF1AFF0ACE14DF0489F7B801615E8C
:103780007F4FC6010E94281BB801605E7F4FC301B6
:1037900080960E94281BB8016F5D7F4FC301819600
:1037A0000E94F41AB8016B5D7F4FC30185960E9499
:1037B000F41AB801675D7F4FC30189960E94F41A1D
:1037C000B801635D7F4FC3018D960E94F41AB80162
:1037D0006F5C7F4FC301C1960E94411BC301C3961A
:1037E0009A838983F80165A9CE0101960E94DB1AAC
:1037F000C301C4969A838983F80166A9CE01019614
:103800000E94DB1AF5E36F0E711CF12CE12C4424AD
:103810004394512C5801AE0CBF1C4301D12CC12C38
:103820001982F50120E090E080E0AC014C0D5D1DB7
:103830004D30510578F437A9332339F0A201082E11
:1038400001C0440F0A94EAF7242B01967196883040
:10385000910559F72983BE016F5F7F4FC4010E9414
:10386000281B8FEF881A980AE8E0CE0ED11CF8E8E2
:10387000AF0EB11C80E1C816D10491F6E2E06E0EE5
:10388000711CFFEFEF1AFF0A81E1E816F10411F64F
:103890000F900F90DF91CF911F910F91FF90EF90BC
:1038A000DF90CF90BF90AF909F908F907F906F9060
:1038B0005F904F900895CF93C0E065E270E00E9462
:1038C0006752009749F0FC012181253211F40296DC
:1038D000F4CFCF5F0196F1CF8C2FCF9108958F92C7
:1038E0009F92AF92BF92CF92DF92EF92FF920F938F
:1038F0001F93CF93DF93CDB7DEB7088919896E0187
:1039000020E2C20ED11C8DE293E00E945B1CB82E17
:1039100034E0839FC0011124FC0177967F01BF0131
:10392000C8010E94341242E15FEF6FEF7FEFC801E0
:103930000E94951142EF50E069EA70E0C8010E94D0
:10394000951148E250E065E170E0C8010E949511D0
:103950004C8D5D8D70E060E0BA01552744275161C0
:10396000C8010E9495116DE273E0C8010E947415B0
:10397000A12CBA1479F04601F4E08F0E911CF601E7
:103980004081518162817381C8010E949511A39485
:103990006401EFCFB701C8010E94B512DF91CF914A
:1039A0001F910F91FF90EF90DF90CF90BF90AF905D
:1039B0009F908F9008956F927F928F929F92AF9277
:1039C000BF92CF92DF92EF92FF920F931F93CF930C
:1039D000DF93CDB7DEB7EA88FB88CE8CDF8CA8A05A
:1039E000B9A04E0182E2880E911C712CD4FE04C055
:1039F000C5010E945B1C782E072D10E00C5F1F4F45
:103A0000000F111F000F111FF50101900020E9F7B1
:103A1000BF016A197B09600F711FC7010E94341230
:103A20004DE05FEF6FEF7FEFC7010E9495114E8968
:103A30005F89052E000C660B770BBA0155274427CA
:103A40008C899D89092E000CAA0BBB0B482B592B86
:103A50006A2B7B2BC7010E9495114A8D5B8D052E29
:103A6000000C660B770BBA0155274427888D998D7A
:103A7000092E000CAA0BBB0B482B592B6A2B7B2B56
:103A8000C7010E949511A60170E060E0BA015527B8
:103A900044278C8D9D8D092E000CAA0BBB0B482B47
:103AA000592B6A2B7B2BC7010E949511B501C701C9
:103AB0000E947415612C671479F06401F4E0CF0E54
:103AC000D11CF4014081518162817381C7010E9440
:103AD000951163944601EFCFF50101900020E9F7BD
:103AE000BF010A191B09600F711FC7010E94B5129F
:103AF000DF91CF911F910F91FF90EF90DF90CF90CA
:103B0000BF90AF909F908F907F906F9008957F921D
:103B10008F929F92AF92BF92CF92DF92EF92FF92DD
:103B20000F931F93CF93DF93CDB7DEB7C988DA88A1
:103B3000E98CFA8CAB8CBC8CF50101900020E9F784
:103B40008F01015011090A191B094E01FDE18F0E69
:103B5000911C712CF4FE04C0C5010E945B1C782EE0
:103B600011270C5F1F4F0C7F872D90E00396880F65
:103B7000991F880F991F080F191FB801C6010E94CD
:103B800034124CE05FEF6FEF7FEFC6010E9495119A
:103B90004D895E89052E000C660B770BBA015527FF
:103BA00044278B899C89B0E0A0E0482B592B6A2BD5
:103BB0007B2BC6010E949511A70170E060E0BA015D
:103BC000552744278F89988D092E000CAA0BBB0B13
:103BD000482B592B6A2B7B2BC6010E949511B501EE
:103BE000C6010E947415F12CF71479F0540184E099
:103BF000A80EB11CF4014081518162817381C6011C
:103C00000E949511F3944501EFCFB801C6010E94BF
:103C1000B512DF91CF911F910F91FF90EF90DF9040
:103C2000CF90BF90AF909F908F907F9008952F92EC
:103C30003F924F925F926F927F928F929F92AF923C
:103C4000BF92CF92DF92EF92FF920F931F93CF9389
:103C5000DF93CDB7DEB7C856D1090FB6F894DEBFF3
:103C60000FBECDBF482E8FE299E00E94C7128FE2AF
:103C700099E00E9424134FEF50E060E072E18FE280
:103C800099E00E949F1240E050E060E072E08FE215
:103C900099E00E949F1247E050E060E076E28FE2F8
:103CA00099E00E949F124FEF5FEF6FEF74E08FE299
:103CB00099E00E949F1248EE52EA60E070E08FE2C5
:103CC00099E00E94391340E050E060E074E18FE237
:103CD00099E00E949F1240E050E060E072E08FE2C5
:103CE00099E00E949F1240E050E06FEF74E08FE295
:103CF00099E00E949F1240E050E060E072E08FE2A5
:103D000099E00E949F1240E850E860E874E08FE27A
:103D100099E00E949F1284E393E09F938F938EE13A
:103D20008F931F921F928F931F9280E58F931F9204
:103D30008FE98F938FE299E09F938F930E94871D65
:103D400040E050E060E072E08FE299E00E949F1254
:103D500040E050E461EC74E08FE299E00E949F1231
:103D600043E050E060E07FE18FE299E00E949F1223
:103D700040E756E060E070E48FE299E00E949F1215
:103D800040E756E060E07AE48FE299E00E949F12FB
:103D900040E050E060E071E28FE299E00E949F1203
:103DA00040E050E060E072E08FE299E00E949F12F4
:103DB0004FEF5FEF6FEF74E08FE299E00E949F1288
:103DC00041E050E060E074E18FE299E00E949F12D0
:103DD000FE0133968CE1DF011D928A95E9F781E0BF
:103DE00089838A8389878A878E87888B8E8B8C8F3D
:103DF00080917E0290917F02A0918002B091810219
:103E0000A9968CAF9DAFAEAFBFAFA997EE59FF4F4C
:103E10004F01F6E04F9E500111240FB6F894DEBF1B
:103E20000FBECDBFD12CC12CDE0111967D016CE1FE
:103E3000762E74E2672EEAE53E2EF0E72F2EF4018F
:103E400051904F0100912A0910912B09452D50E006
:103E500070E060E07360C8010E949F12F601EA0DF5
:103E6000FB1DEE0DFF1D8081882309F4FDC04FEF7F
:103E700050E060E070E1C8010E949F1241E050E014
:103E800060E074E1C8010E949F12F3E05F1609F43C
:103E900021C1F5150CF4F4C022E0521609F45CC1FE
:103EA00040E050E060E074E1C8010E949F129FEF83
:103EB000C91AD90AA4E0CA16D10409F689E19CE01E
:103EC0009F938F9382E793E09F938F93FF92EF925C
:103ED0000E948252FF92EF9280E1B82EBF921F9211
:103EE0001F9294E1D92EDF921F9283EC8F931F9241
:103EF00029E1A22EAF920FE219E01F930F930E94C7
:103F0000871D80914B0C8F9380914A0C8F9383E88F
:103F100093E09F938F93FF92EF920E948252FF92C1
:103F2000EF92BF921F921F92DF921F9230EDC32E2D
:103F3000CF921F92AF921F930F930E94871D0FB6CF
:103F4000F894DEBF0FBECDBF8091380C9091390C34
:103F50008902C0011124092E000CAA0BBB0BBF93D0
:103F6000AF939F938F9385E993E09F938F93FF92F5
:103F7000EF920E948252FF92EF92BF921F921F9285
:103F8000DF921F924CEDB42EBF921F92AF921F93FF
:103F90000F930E94871D80912E0990E001969F93B8
:103FA0008F9380912D0990E001969F938F9386EADD
:103FB00093E09F938F93FF92EF920E948252FF9221
:103FC000EF9258E1A52EAF921F921F92DF921F929F
:103FD000CF92CC24C394CF9284E28F931F930F93FC
:103FE0000E94871D0FB6F894DEBF0FBECDBF809133
:103FF0002C091F928F938FEB93E09F938F93FF92E7
:10400000EF920E948252FF92EF92AF921F921F9204
:10401000DF921F92BF92CF9286E28F931F930F93EE
:104020000E94871DC8010E9472130FB6F894DEBF6C
:104030000FBECDBFC859DF4F0FB6F894DEBF0FBE1D
:10404000CDBFDF91CF911F910F91FF90EF90DF9047
:10405000CF90BF90AF909F908F907F906F905F9028
:104060004F903F902F9008954CE350E060E070E156
:10407000C8010E949F1240E050E060E074E102CF6E
:1040800084E0581609F446C095E0591209CF40E083
:1040900050E06AEA70E0C8010E94391393E0AEE490
:1040A000B3E0491639F094E0A2E6B3E0491611F006
:1040B000ADE6B3E0BF93AF931F921F921F927F9222
:1040C0001F926F9281E08F9381E18F931F928DE910
:1040D0008F9318C040E054E660E070E0C8010E9491
:1040E0003913A2E04A1211C0EBE3F3E0FF93EF9320
:1040F0001F921F921F927F921F926F921F923F9268
:104100001F922F921F9289E11CC0A2E4B3E0BF93DB
:10411000AF93EECF4CE35FEA6DEA70E0C8010E9416
:104120003913A8E4B3E0BF93AF931F921F921F927D
:104130007F921F926F921F923F921F922F921F9217
:104140008FEC8F931F930F930E94DB1C0FB6F89494
:10415000DEBF0FBECDBFA4CE48EE52EA60E070E0F5
:10416000C8010E943913A3EDB4E0BF93AF9380E17F
:104170008F931F921F927F921F926F921F923F9276
:104180001F9285E08F931F9280EDDBCF82E00E942B
:10419000171E0E94F611833039F08530D1F780E088
:1041A0000E94171E80E0089581E00E94171E81E0A2
:1041B0000895FF920F931F93CF93DF93CDB7DEB790
:1041C0002C970FB6F894DEBF0FBECDBF80914E0C7A
:1041D000882379F00E943D17853029F480E00E9401
:1041E000171E80E07EC0843021F40E94C620882300
:1041F000C1F361EC72E0CE0101960E948D166EED66
:1042000073E0CE0107960E948D16CE0107960E949C
:104210003517CE0101960E94351783EC90E00E947D
:104220001D1509E010E0F12CF1101DC00E94F611DF
:10423000182F8CEF810F8230B0F461EC72E0CE0168
:1042400001960E948D166FEC73E0CE0107960E94D6
:104250008D16CE0107960E943517CE0101960E9459
:104260003517FF24F39464E670E080E090E00E944C
:104270004D0B0150C9F685EC90E00E941D1561ECD4
:1042800072E0CE0101960E948D1663ED73E0CE01BF
:1042900007960E948D16CE0107960E943517CE0113
:1042A00001960E943517153009F498CF143029F47F
:1042B0000E94C620882309F494CF80914E0C882355
:1042C00061F00E943D17182F853039F480E00E947C
:1042D000171E81E0153029F484CF1430D1F70E94E5
:1042E000C62081702C960FB6F894DEBF0FBECDBFEE
:1042F000DF91CF911F910F91FF900895DF92EF9280
:10430000FF920F931F93CF93DF93CDB7DEB72C9718
:104310000FB6F894DEBF0FBECDBF8C01D22EFC01CC
:1043200080899189A289B389480F591F6A1F7B1F11
:10433000C8010E943F1061EC72E0CE0107960E9416
:104340008D1665EE73E0CE0101960E948D16CE01AA
:1043500001960E943517CE0107960E943517F12C61
:10436000F801448955896689778980899189A2896C
:10437000B389481759076A077B07E9F18D2D0E9419
:10438000A00A892BA9F0F1100BC04CE251E260E3C6
:1043900070E080912A0990912B090E941411F82E47
:1043A0008CEF8F0D823038F1C8010E94640FD8CF96
:1043B00095E0E92E8CEF8F0D823000F5F5E080E07E
:1043C000FF1282E00E94171EF80144895589668910
:1043D000778980899189A289B389481759076A0723
:1043E0007B0759F08D2D0E94A00A892B69F1C80125
:1043F0000E94640FE9CFE12CDDCFEF2CC8010E94B1
:10440000561061EC72E0CE0107960E948D1660EFA7
:1044100073E0CE0101960E948D16CE0101960E9496
:104420003517CE0107960E9435178E2D2C960FB6A4
:10443000F894DEBF0FBECDBFDF91CF911F910F91DA
:10444000FF90EF90DF90089585E0E82ED7CF3F9260
:104450004F925F926F927F928F929F92AF92BF9294
:10446000CF92DF92EF92FF920F931F93CF93DF9340
:10447000CDB7DEB76A970FB6F894DEBF0FBECDBFDB
:104480002B013C01942E852E322E8FE299E00E9462
:10449000241348E758E768E772E08FE299E00E944A
:1044A0009F1247E050E060E076E28FE299E00E94E0
:1044B0009F124FEF5FEF6FEF74E08FE299E00E9481
:1044C0009F1241E050E060E074E18FE299E00E94C9
:1044D0009F1240E250E260E270E08FE299E00E94B9
:1044E000391340E250E260E270E08FE299E00E940E
:1044F0008A1348EE52EA60E070E08FE299E00E9491
:1045000039134EEF50E060E073E08FE299E00E94D3
:104510009F128EEF481651046104710409F46BC1B7
:1045200080E02AEF33E03F932F938F931F921F92E7
:104530008BE18F931F928EE28F931F9283E48F9370
:104540001F9285E28F931F928FEC8F938FE299E0F9
:104550009F938F930E94DB1C4CE35FEA6DEA70E04F
:104560008FE299E00E9439134BEF50E060E073E076
:104570008FE299E00E949F120FB6F894DEBF0FBE43
:10458000CDBF80E09BEF491651046104710409F42A
:1045900081E02FEF33E03F932F938F931F921F9271
:1045A0008FE18F931F9282E38F931F9283E48F9307
:1045B0001F9287E58F931F928FEC8F938FE299E084
:1045C0009F938F930E94DB1C40E054E660E070E014
:1045D0008FE299E00E94391347EF50E060E073E00A
:1045E0008FE299E00E949F120FB6F894DEBF0FBED3
:1045F000CDBF80E097EF491651046104710409F4BE
:1046000081E022E034E03F932F938F931F921F921B
:104610008BE18F931F928AE58F931F9283E48F9390
:104620001F928DE88F931F928FEC8F938FE299E00A
:104630009F938F930E94DB1C40E250E260E270E0A7
:104640008FE299E00E94391340E250E260E270E0AC
:104650008FE299E00E948A1388E0A82E84E0B82EA9
:1046600062019DE1E92EF12C02E310E026E930E041
:1046700043E250E06FE270E08FE299E00E94AC15F7
:104680002CE0A22E24E0B22E26E930E048E550E0EE
:104690006FE270E08FE299E00E94AC1530E1A32E4A
:1046A00034E0B32E26E930E04CE850E06FE270E0F1
:1046B0008FE299E00E94AC1544E1A42E44E0B42EB0
:1046C00008E210E026E930E04FEB50E06FE270E0E6
:1046D0008FE299E00E94AC1540E050E060E074E1A8
:1046E0008FE299E00E949F1240E050E060E07BE1A1
:1046F0008FE299E00E949F1242E250E064E17CE187
:104700008FE299E00E949F1240E050E060E072E08A
:104710008FE299E00E949F1247E050E060E076E26D
:104720008FE299E00E949F124FEF5FEF6FEF74E00E
:104730008FE299E00E949F120FB6F894DEBF0FBE81
:10474000CDBF8E010F5F1F4F332009F456C087E1A4
:1047500094E09F938F938F929F9284E294E09F9333
:104760008F931F930F930E9482520FB6F894DEBF6F
:104770000FBECDBF1F930F931F921F921F928EE10A
:104780008F931F921F921F921F928FE299E09F9327
:104790008F930E94871D40E050E0BA018FE299E0BC
:1047A0000E949F128FE299E00E945D1310922609E9
:1047B0001092270910922809109229090FB6F8942F
:1047C000DEBF0FBECDBF6A960FB6F894DEBF0FBE38
:1047D000CDBFDF91CF911F910F91FF90EF90DF90B0
:1047E000CF90BF90AF909F908F907F906F905F9091
:1047F0004F903F90089581E094CE8F929F921F93A7
:104800000F930E9482520F900F900F900F90B2CF93
:104810002F923F924F925F926F927F928F929F92D0
:10482000AF92BF92CF92DF92EF92FF920F931F93BE
:10483000CF93DF93CDB7DEB7A9970FB6F894DEBF5D
:104840000FBECDBF4C01762E342E252E2FA338A7B8
:104850006E2CC9A60E94241348E758E768E772E067
:10486000C4010E949F1247E050E060E076E2C4017C
:104870000E949F124FEF5FEF6FEF74E0C4010E9440
:104880009F1241E050E060E074E1C4010E949F1279
:1048900040E058E360E770E0C4010E94391340E053
:1048A00058E360E770E0C4010E948A1340E050E0E2
:1048B0006AEA70E0C4010E9439134EEF50E060E0F4
:1048C00073E0C4010E949F122EEF81E0721280E01B
:1048D0002BE634E03F932F938F931F921F928BE12F
:1048E0008F931F928AE18F931F928EE28F931F9274
:1048F00087EC8F9381E08F9381E18F939F928F92CA
:104900000E94DB1C40E058E360E770E0C4010E94B5
:1049100039134CE35FEA6DEA70E0C4010E94391379
:104920004BEF50E060E073E0C4010E949F120FB6AD
:10493000F894DEBF0FBECDBF9BEF81E0791280E01F
:104940002FEF33E03F932F938F931F921F928BE1B2
:104950008F931F928AE18F931F9288E28F931F9209
:1049600088EA8F9381E08F9388E18F939F928F9253
:104970000E94DB1C40E058E360E770E0C4010E9445
:10498000391348EE52EA60E070E0C4010E94391326
:1049900048EF50E060E073E0C4010E949F120FB640
:1049A000F894DEBF0FBECDBF98EF81E0791280E0B2
:1049B0002AEF33E03F932F938F931F921F928BE147
:1049C0008F931F928AE18F931F928DE38F931F9293
:1049D00087EC8F931F9284E28F939F928F920E9415
:1049E000DB1C40E250E260E270E0C4010E94391337
:1049F00040E250E060E073E0C4010E949F120FB6F5
:104A0000F894DEBF0FBECDBF90E281E0791280E066
:104A100021E734E03F932F938F931F921F928BE1F6
:104A20008F931F928AE18F931F9289E68F931F9233
:104A300087EC8F931F9284E68F939F928F920E94B0
:104A4000DB1C472C512C0FB6F894DEBF0FBECDBF38
:104A5000011189C18BE294E0611002C086E394E009
:104A60005C0162016BE1E62EF12C0AE110E020E42A
:104A700031E04AE650E070E060E0C4010E94AC150D
:104A800081E494E0611002C08BE494E05C01620177
:104A90005BE1E52EF12C0AE110E023E331E048E888
:104AA00050E06DE070E0C4010E94AC1585E594E033
:104AB000611002C08DE594E05C0162014BE1E42EDF
:104AC000F12C0AE110E029EE30E048EA50E068E21B
:104AD00070E0C4010E94AC154CEF50E060E073E060
:104AE000C4010E949F1285E694E0611002C088E62E
:104AF00094E02CEF721235C121E09F938F932F9396
:104B00001F921F928BE18F931F928AE18F931F92C6
:104B100080E28F931F9288EA8F931F921F929F9239
:104B20008F920E94DB1C4DEF50E060E073E0C40107
:104B30000E949F120FB6F894DEBF0FBECDBF9DEF4F
:104B400081E0791280E027E734E03F932F938F9341
:104B50001F921F928BE18F931F928AE18F931F9276
:104B600080E28F931F9287EC8F931F921F929F92E8
:104B70008F920E94DB1C0FB6F894DEBF0FBECDBF34
:104B800040E054E660E070E0C4010E94391349EF50
:104B900050E060E073E0C4010E949F1299EF81E051
:104BA000791280E022E034E03F932F938F931F929D
:104BB0001F921BE11F931F928AE18F931F928DE337
:104BC0008F931F9287EC8F931F9280ED8F939F920C
:104BD0008F920E94DB1C40E058E360E770E0C40164
:104BE0000E94391340E050E060E074E1C4010E948B
:104BF0009F1240E050E060E07BE1C4010E949F1200
:104C000042E650E064E17CE1C4010E949F1240E072
:104C100050E060E072E0C4010E949F1247E050E063
:104C200060E076E2C4010E949F124FEF5FEF6FEFEA
:104C300074E0C4010E949F120FB6F894DEBF0FBE4D
:104C4000CDBF99A5992309F4C9C087E693E09F9346
:104C50008F932F923F928CE994E09F938F93CE0194
:104C600001963C019F938F930E9482527F926F9294
:104C70001F921F921F921F931F921F921F921F92AB
:104C80009F928F920E94871D0FB6F894DEBF0FBED1
:104C9000CDBF4DE450E060E07BE1C4010E949F1273
:104CA00048E150E064E17CE1C4010E949F1248E7C2
:104CB00058E768E772E0C4010E949F1247E050E0A5
:104CC00060E076E2C4010E949F1240E05FEF6FEF68
:104CD00074E0C4010E949F12AFA1B8A5FD0101902C
:104CE0000020E9F73197EA1BFB0BBF932FA12F930D
:104CF0001F921F921F928BE18F931F928EE48F93CE
:104D000085E08E9F90018F9F300D112480EA90E006
:104D1000821B930B9F938F939F928F920E94871D6C
:104D2000C4010E9472130FB6F894DEBF0FBECDBF50
:104D3000A9960FB6F894DEBF0FBECDBFDF91CF911D
:104D40001F910F91FF90EF90DF90CF90BF90AF90A9
:104D50009F908F907F906F905F904F903F902F909B
:104D6000089520E0CACE8BE7A82E84E0B82E620119
:104D70009BE1E92EF12C0AE110E020E431E04AE663
:104D800050E070E060E0C4010E94AC1526E8A22E5D
:104D900024E0B22E23E331E048E850E06DE070E01B
:104DA000C4010E94AC1530E9A32E34E0B32E29EEE5
:104DB00030E048EA50E068E270E0C4010E94AC15BF
:104DC0004DEF50E060E073E0C4010E949F129DEF40
:104DD00081E0791280E028E934E0B7CE2F923F924B
:104DE0001F921F921F921F931F921F921F921F923A
:104DF0009F928F9247CF3F924F925F926F927F9296
:104E00008F929F92AF92BF92CF92DF92EF92FF92DA
:104E10000F931F93CF93DF93CDB7DEB7E8970FB60D
:104E2000F894DEBF0FBECDBF4C012B013A0168ECF8
:104E300070E080E090E00E944D0BFE013196CE01C3
:104E40004F965F011192E817F907E1F7B201C5012A
:104E50000E947B52F50101900020E9F73197EA1991
:104E6000FB091E2FEA0DFB2DF11D1082C12CE12C38
:104E700000E09301A50160E0C4010E94082461EEF6
:104E800078E0CE01C3960E948D16CE01C3960E9493
:104E90003517312CD12C0E94F611F82E8823D9F326
:104EA0000E94E9118BEFF816F1F08F1588F088EF6A
:104EB000F81609F451C089EFF81609F449C01E31FB
:104EC00008F062C0F501E10FF11DF0821F5F18C00C
:104ED0008DEFF81681F1F816C0F08EEFF812EFCFD3
:104EE000198210E01EC01123E1F062EA74E0CE01E5
:104EF000C3960E948D16CE01C3960E94351711509D
:104F0000F501E10FF11D10820CC067EA74E0CE01DB
:104F1000C3960E948D16CE01C3960E94351781E07C
:104F20003826C12CE32C0D2D9301A50160E0C401AE
:104F30000E940824B0CF6BEA74E0CE01C3960E94B1
:104F40008D16CE01C3960E94351781E0D826E9CF91
:104F5000B501C2010E947B52E8960FB6F894DEBFFD
:104F60000FBECDBFDF91CF911F910F91FF90EF90BA
:104F7000DF90CF90BF90AF909F908F907F906F9079
:104F80005F904F903F900895CC24C394E32C0D2D57
:104F90009301A5016F2DC4010E94082464EF71E004
:104FA00080E090E00E944D0BBCCFCF92DF92EF9259
:104FB000FF920F931F938C016A017B01CB01BA0111
:104FC0000E945A4F062E000C770B880B990B0E94FB
:104FD0002B4D9B01AC01C701B6010E947B4E20E026
:104FE00030E0A9010E94904F18166CF421E043E0D4
:104FF000C701B6010E94FD481F910F91FF90EF90ED
:10500000DF90CF900895C701B6010E945A4F7F9359
:105010006F938AE995E09F938F931F930F930E945C
:1050200082520F900F900F900F900F900F90E4CF3F
:105030004F925F926F927F928F929F92AF92BF92A8
:10504000CF92DF92EF92FF920F931F93CF93DF9354
:10505000CDB7DEB765970FB6F894DEBF0FBECDBFF4
:105060006A8B7B8B8C8B9D8B49015A012701380100
:10507000FE013196CE010B968F0111928E179F077C
:10508000E1F74A895B896C897D89C8010E94D5272F
:10509000F80101900020E9F73197E01BF10BEE2EAB
:1050A000C8018E0F911DE7FD9A95FC0110826FEAF1
:1050B00074E0CE0108960E948D16CE0108960E94DB
:1050C000351720E0A80160E070E0CB010E942722A4
:1050D0000E94F611F82E8823D9F390E0B0E0A0E00A
:1050E0008E879F87A88BB98B20E0A801BC01CD01DA
:1050F0000E9427220E94E91164EB74E0CE01089619
:105100000E948D16CE0108960E9435179BEFF91666
:1051100009F454C0AEEFFA1609F46CC0B7EFFB12F5
:1051200071C0C8010E941B496B017C016CEB74E0EB
:10513000CE0108960E948D16CE0108960E94351762
:10514000A5019401C701B6010E94244D87FD09C045
:10515000A3019201C701B6010E94904F18160CF0EE
:105160006BC021E0A80160E070E0CB010E94272223
:1051700060ED77E080E090E00E944D0BA30192018A
:10518000C701B6010E94904FB301A201181614F096
:10519000B501A401C8010E94D527F80101900020A3
:1051A000E9F73197EE2EE01A20E0A80160E070E008
:1051B000CB010E9427220E94E9118ACFE7FC08C098
:1051C000E110EA94F801EE0DF11DE7FCFA9510826A
:1051D00068EB74E0CE0108960E948D16CE01089609
:1051E0000E943517F12C6F2D70E090E080E020E0F8
:1051F000A801DFCF4A895B896C897D89C8010E943B
:10520000D5278FCF84E08E1574F0F801EE0DF11DD7
:10521000E7FCFA95F082E394F801EE0DF11DE7FC4E
:10522000FA951082DFCF21E0A8016E857F858889FD
:1052300099890E942722D7CFB701A601C8010E94F1
:10524000D52720E0A80160E070E0CB010E94272272
:10525000C701B60165960FB6F894DEBF0FBECDBF8D
:10526000DF91CF911F910F91FF90EF90DF90CF9042
:10527000BF90AF909F908F907F906F905F904F9076
:105280000895EF92FF920F931F93CF93DF93CDB7C3
:10529000DEB76E970FB6F894DEBF0FBECDBF7C01B0
:1052A000FC0160817181828193818E010F5F1F4FAC
:1052B00021E043E00E94FD48C8010E941B49F7011C
:1052C00060837183828393836E960FB6F894DEBFFA
:1052D0000FBECDBFDF91CF911F910F91FF90EF9047
:1052E00008954F925F926F927F928F929F92AF92AA
:1052F000BF92CF92DF92EF92FF920F931F93CF93C3
:10530000DF93CDB7DEB76E970FB6F894DEBF0FBE52
:10531000CDBF7C010E94C712C7010E94241347E041
:1053200050E060E076E2C7010E949F124FEF50E02C
:1053300060E072E1C7010E949F124FEF5FEF6FEFD5
:1053400074E0C7010E949F1285EC94E09F938F93B5
:105350000EE10F931F921F9215E11F931F9284E19C
:105360008F931F928AE88F93FF92EF920E94871D7E
:1053700040E050E461EC72E0C7010E949F1248EEE9
:1053800052EA60E070E0C7010E94391341E050E04A
:1053900060E074E1C7010E949F1246E050E060E0C7
:1053A00073E0C7010E949F128CED94E09F938F934E
:1053B0001F921F921F921F931F928AE18F931F9239
:1053C0008CE48F931F9289E08F931F9289EE8F93C5
:1053D000FF92EF920E94DB1C40E050E060E074E13D
:1053E000C7010E949F1287ED98E09F938F930F93C0
:1053F0001F921F921F931F92F2E5DF2EDF921F92E2
:10540000A9E2CA2ECF92FF92EF920E94871D0FB69B
:10541000F894DEBF0FBECDBF81EE94E09F938F93D3
:105420000F931F921F921F931F92DF921F928CE780
:105430008F93FF92EF920E94871D88EE94E09F93D6
:105440008F930F931F921F921F931F92DF921F92B1
:1054500084EB8F93FF92EF920E94871D8CEE94E075
:105460009F938F930F931F921F921F931F92DF9210
:105470001F928FEF8F93FF92EF920E94871D0FB6BE
:10548000F894DEBF0FBECDBF84EF94E09F938F935F
:105490000F931F921F921F931F928CE68F931F9260
:1054A0008EE28F93FF92EF920E94871D81E095E03C
:1054B0009F938F930F931F921F921F931F928EE8BB
:1054C0008F931F92CF92FF92EF920E94871D8CE0E4
:1054D00095E09F938F930F931F921F921F931F929C
:1054E0008BE88F9381E08F9386E08F93FF92EF920A
:1054F0000E94871D0FB6F894DEBF0FBECDBF87E1B7
:1055000095E09F938F930F931F921F921F931F926B
:1055100080EB8F931F928CE28F93FF92EF920E9409
:10552000871D4FEF5FEF6FEF74E0C7010E949F127E
:1055300049E050E060E07FE1C7010E949F1241E036
:1055400050E060E074E1C7010E949F124DE050E01E
:1055500060E073E0C7010E949F1240EF53E060E5F6
:1055600070E4C7010E949F1240EC52E068EA79E4BF
:10557000C7010E949F1240E050E060E074E1C70163
:105580000E949F1241E050E060E074E1C7010E9478
:105590009F124EE050E060E073E0C7010E949F124E
:1055A00040EF56E060E473E4C7010E949F1240E0C0
:1055B00056E060E974E4C7010E949F1240E050E0A9
:1055C00060E074E1C7010E949F1241E050E060E09A
:1055D00074E1C7010E949F124FE050E060E073E069
:1055E000C7010E949F1240EF56E068E075E4C701D2
:1055F0000E949F1240E056E068E576E4C7010E94F1
:105600009F1240E050E060E074E1C7010E949F12E9
:1056100041E050E060E074E1C7010E949F1240E168
:1056200050E060E073E0C7010E949F1240E359E040
:1056300060E473E4C7010E949F1240E358E060E910
:1056400074E4C7010E949F1240E050E060E074E102
:10565000C7010E949F1241E050E060E074E1C70181
:105660000E949F1241E150E060E073E0C7010E9498
:105670009F1240E359E068E075E4C7010E949F1261
:1056800040E358E068E576E4C7010E949F1240E0DD
:1056900050E060E074E1C7010E949F1241E050E0D9
:1056A00060E074E1C7010E949F1242E150E060E0B7
:1056B00073E0C7010E949F1240E75BE060E473E47F
:1056C000C7010E949F1240E45AE060E974E4C701F8
:1056D0000E949F1240E050E060E074E1C7010E9428
:1056E0009F1241E050E060E074E1C7010E949F1208
:1056F00043E150E060E073E0C7010E949F1240E781
:105700005BE068E075E4C7010E949F1240E45AE044
:1057100068E576E4C7010E949F1240E050E060E037
:1057200074E1C7010E949F1241E050E060E074E123
:10573000C7010E949F1244E150E060E073E0C7019E
:105740000E949F1240EF56E060E577E4C7010E9497
:105750009F1240E056E060EC78E4C7010E949F127F
:1057600040E050E060E074E1C7010E949F1240E019
:1057700050E060E071E2C7010E949F1240E050E0FB
:1057800060E074E0C7010E949F1289E19CE09F9352
:105790008F930F931F921F921F931F9285E38F93F6
:1057A0001F9286E98F93FF92EF920E94871D4FEF21
:1057B0005FEF6FEF74E0C7010E949F1248EE52EA5C
:1057C00060E070E0C7010E948A130FB6F894DEBF54
:1057D0000FBECDBF80914E0C882309F4D2C140E0AA
:1057E00053E760E070E0C7010E94391340E050E8E1
:1057F00060E074E0C7010E949F1210E000E041E009
:1058000050E060E074E1C7010E949F1249E150E05E
:1058100060E073E0C7010E949F128DE293E09F93C6
:105820008F930F931F9381E18F931F921F9285E1B6
:10583000B82EBF921F9288E28F931F9289EA8F93AE
:105840001F9282EF8F93FF92EF920E946F1C48EE9F
:1058500052EA60E070E0C7010E948A1340E053E71B
:1058600060E070E0C7010E94391340E050E060E062
:1058700074E1C7010E949F1240E050E060E074E0D4
:10588000C7010E949F1240E050E060E074E0C70151
:105890000E949F128091380C282F082E000C330B89
:1058A0003F938F939AE9892E95E0992E9F928F923C
:1058B000CE0101966C019F938F930E948252DF92DA
:1058C000CF922EE1A22EAF921F921F92BF921F92F3
:1058D00038E6732E7F921F924CE7442E4F92FF9230
:1058E000EF920E94871D0FB6F894DEBF0FBECDBFAA
:1058F0008091390C282F082E000C330B3F938F9387
:105900009F928F92DF92CF920E948252DF92CF922B
:10591000AF921F921F92BF921F927F921F9256EBDF
:10592000652E6F92FF92EF920E94871D60913A0C54
:1059300070913B0C80913C0C90913D0C860121E0D4
:1059400044E00E94FD48DF92CF92AF921F921F92D7
:10595000BF921F926BE8562E5F921F924F92FF925A
:10596000EF920E94871D60913E0C70913F0C8091D8
:10597000400C9091410C21E044E00E94FD48DF92F0
:10598000CF92AF921F921F92BF921F925F921F926F
:105990006F92FF92EF920E94871D0FB6F894DEBFC0
:1059A0000FBECDBF6091420C7091430C8091440CAE
:1059B0009091450C21E044E00E94FD48DF92CF9297
:1059C000AF921F921F92BF921F927EEA572E5F9254
:1059D0001F928DE78F93FF92EF920E94871D609137
:1059E000460C7091470C8091480C9091490C21E035
:1059F00044E00E94FD48DF92CF92AF921F921F9227
:105A0000BF921F925F921F926F92FF92EF920E943D
:105A1000871D80914B0C8F9380914A0C8F939F929E
:105A20008F92DF92CF920E948252DF92CF92AF92FA
:105A30001F921F92BF921F927F921F928FEF8F93A0
:105A4000FF92EF920E94871D0FB6F894DEBF0FBE43
:105A5000CDBF4FEF5FEF6FEF74E0C7010E949F1261
:105A600041E050E060E074E1C7010E949F1248EEFF
:105A700052EA60E070E0C7010E9439134BE050E049
:105A800060E073E0C7010E949F1283E295E09F935C
:105A90008F931F921F921F92BF921F92EAE1DE2EF8
:105AA000DF921F920CE40F931F921DEC1F931F9225
:105AB00084E78F93FF92EF920E94DB1C4CE050E052
:105AC00060E073E0C7010E949F1288E295E09F9317
:105AD0008F931F921F921F92BF921F92DF921F926D
